:100000000C9434000C9451000C9451000C94510049
:100010000C9451000C9451000C9451000C9451001C
:100020000C9451000C9451000C9451000C9451000C
:100030000C9451000C9451000C9451000C945100FC
:100040000C9451000C9451000C9453000C945100EA
:100050000C9451000C9451000C9451000C945100DC
:100060000C9451000C94510011241FBECFEFD8E026
:10007000DEBFCDBF11E0A0E0B1E0ECE5F1E002C0F1
:1000800005900D92A230B107D9F721E0A2E0B1E0CE
:1000900001C01D92A731B207E1F70E9466000C94DF
:1000A000AC000C9400001F920F920FB60F92112417
:1000B0008F938091C60080930D0181E080930201AF
:1000C0008F910F900FBE0F901F9018958FEF84B9EE
:1000D0000E948100789480E091E00E949C008091D1
:1000E00002018130E1F7109202012C9A2FEF89E68C
:1000F00098E1215080409040E1F700C000002C982A
:10010000EECF1092C50087E68093C400E2ECF0E0E9
:10011000808186608083E1ECF0E08081886180836B
:100120008081806880830895E0ECF0E0908195FF05
:10013000FDCF8093C6000895CF93DF93EC018881B3
:10014000882339F0219690E00E94940089918111D2
:0C015000FACFDF91CF910895F894FFCF13
:02015C00410060
:00000001FF
